{
  "contractName": "givo",
  "abi": [
    {
      "constant": true,
      "inputs": [
        {
          "name": "",
          "type": "uint256"
        },
        {
          "name": "",
          "type": "uint256"
        }
      ],
      "name": "offers",
      "outputs": [
        {
          "name": "",
          "type": "uint256"
        }
      ],
      "payable": false,
      "stateMutability": "view",
      "type": "function"
    },
    {
      "constant": true,
      "inputs": [],
      "name": "node_cntr",
      "outputs": [
        {
          "name": "",
          "type": "uint256"
        }
      ],
      "payable": false,
      "stateMutability": "view",
      "type": "function"
    },
    {
      "constant": true,
      "inputs": [],
      "name": "max_all_good",
      "outputs": [
        {
          "name": "",
          "type": "uint256"
        }
      ],
      "payable": false,
      "stateMutability": "view",
      "type": "function"
    },
    {
      "constant": true,
      "inputs": [
        {
          "name": "",
          "type": "uint256"
        }
      ],
      "name": "all_goods",
      "outputs": [
        {
          "name": "node",
          "type": "uint256"
        },
        {
          "name": "index",
          "type": "uint256"
        },
        {
          "name": "available",
          "type": "bool"
        },
        {
          "name": "name",
          "type": "string"
        },
        {
          "name": "ipfs_image",
          "type": "string"
        },
        {
          "name": "ipfs_details",
          "type": "string"
        }
      ],
      "payable": false,
      "stateMutability": "view",
      "type": "function"
    },
    {
      "anonymous": false,
      "inputs": [
        {
          "indexed": false,
          "name": "to",
          "type": "uint256"
        },
        {
          "indexed": false,
          "name": "good_id",
          "type": "uint256"
        },
        {
          "indexed": false,
          "name": "from",
          "type": "uint256"
        }
      ],
      "name": "intrested",
      "type": "event"
    },
    {
      "anonymous": false,
      "inputs": [
        {
          "indexed": false,
          "name": "to",
          "type": "uint256"
        },
        {
          "indexed": false,
          "name": "good_id",
          "type": "uint256"
        },
        {
          "indexed": false,
          "name": "from",
          "type": "uint256"
        }
      ],
      "name": "not_intrested",
      "type": "event"
    },
    {
      "anonymous": false,
      "inputs": [
        {
          "indexed": false,
          "name": "to",
          "type": "uint256"
        },
        {
          "indexed": false,
          "name": "good_id",
          "type": "uint256"
        },
        {
          "indexed": false,
          "name": "from",
          "type": "uint256"
        },
        {
          "indexed": false,
          "name": "refer_id",
          "type": "uint256"
        }
      ],
      "name": "refer",
      "type": "event"
    },
    {
      "anonymous": false,
      "inputs": [
        {
          "indexed": false,
          "name": "owner",
          "type": "uint256"
        },
        {
          "indexed": false,
          "name": "good_id",
          "type": "uint256"
        }
      ],
      "name": "deleted",
      "type": "event"
    },
    {
      "anonymous": false,
      "inputs": [
        {
          "indexed": false,
          "name": "to",
          "type": "uint256"
        },
        {
          "indexed": false,
          "name": "get_owner",
          "type": "uint256"
        },
        {
          "indexed": false,
          "name": "get_good_id",
          "type": "uint256"
        },
        {
          "indexed": false,
          "name": "give_owner",
          "type": "uint256"
        },
        {
          "indexed": false,
          "name": "give_good_id",
          "type": "uint256"
        }
      ],
      "name": "chained",
      "type": "event"
    },
    {
      "constant": false,
      "inputs": [
        {
          "name": "name",
          "type": "string"
        },
        {
          "name": "ipfs_image",
          "type": "string"
        },
        {
          "name": "ipfs_details",
          "type": "string"
        }
      ],
      "name": "create_offer",
      "outputs": [
        {
          "name": "good_id",
          "type": "uint256"
        }
      ],
      "payable": false,
      "stateMutability": "nonpayable",
      "type": "function"
    },
    {
      "constant": false,
      "inputs": [
        {
          "name": "good_id",
          "type": "uint256"
        }
      ],
      "name": "delete_offer",
      "outputs": [],
      "payable": false,
      "stateMutability": "nonpayable",
      "type": "function"
    },
    {
      "constant": true,
      "inputs": [
        {
          "name": "node_id",
          "type": "uint256"
        }
      ],
      "name": "get_offers",
      "outputs": [
        {
          "name": "my_offers",
          "type": "uint256[]"
        }
      ],
      "payable": false,
      "stateMutability": "view",
      "type": "function"
    },
    {
      "constant": false,
      "inputs": [
        {
          "name": "good_id",
          "type": "uint256"
        }
      ],
      "name": "add_intrest",
      "outputs": [],
      "payable": false,
      "stateMutability": "nonpayable",
      "type": "function"
    },
    {
      "constant": false,
      "inputs": [
        {
          "name": "good_id",
          "type": "uint256"
        }
      ],
      "name": "delete_intrest",
      "outputs": [],
      "payable": false,
      "stateMutability": "nonpayable",
      "type": "function"
    },
    {
      "constant": false,
      "inputs": [
        {
          "name": "good_id",
          "type": "uint256"
        },
        {
          "name": "refer_id",
          "type": "uint256"
        }
      ],
      "name": "refer_intrest",
      "outputs": [],
      "payable": false,
      "stateMutability": "nonpayable",
      "type": "function"
    },
    {
      "constant": false,
      "inputs": [
        {
          "name": "to",
          "type": "uint256"
        },
        {
          "name": "get_good_id",
          "type": "uint256"
        },
        {
          "name": "give_owner",
          "type": "uint256"
        },
        {
          "name": "give_good_id",
          "type": "uint256"
        }
      ],
      "name": "cycle_formed",
      "outputs": [],
      "payable": false,
      "stateMutability": "nonpayable",
      "type": "function"
    }
  ],
  "bytecode": "0x608060405260008055600060015534801561001957600080fd5b506111e2806100296000396000f3fe6080604052600436106100af576000357c0100000000000000000000000000000000000000000000000000000000900463ffffffff16806343cef25e146100b45780634d03a9a51461010d5780634db5474c1461016657806386c12362146101f6578063881d963714610221578063a2eeced91461025c578063b055388614610297578063c175cdd3146102d2578063dee7afcf146104dc578063eeeb437914610507578063f9833cc61461054c575b600080fd5b3480156100c057600080fd5b5061010b600480360360808110156100d757600080fd5b81019080803590602001909291908035906020019092919080359060200190929190803590602001909291905050506106f1565b005b34801561011957600080fd5b506101506004803603604081101561013057600080fd5b81019080803590602001909291908035906020019092919050505061078d565b6040518082815260200191505060405180910390f35b34801561017257600080fd5b5061019f6004803603602081101561018957600080fd5b81019080803590602001909291905050506107bd565b6040518080602001828103825283818151815260200191508051906020019060200280838360005b838110156101e25780820151818401526020810190506101c7565b505050509050019250505060405180910390f35b34801561020257600080fd5b5061020b61082b565b6040518082815260200191505060405180910390f35b34801561022d57600080fd5b5061025a6004803603602081101561024457600080fd5b8101908080359060200190929190505050610831565b005b34801561026857600080fd5b506102956004803603602081101561027f57600080fd5b8101908080359060200190929190505050610a56565b005b3480156102a357600080fd5b506102d0600480360360208110156102ba57600080fd5b8101908080359060200190929190505050610b05565b005b3480156102de57600080fd5b506104c6600480360360608110156102f557600080fd5b810190808035906020019064010000000081111561031257600080fd5b82018360208201111561032457600080fd5b8035906020019184600183028401116401000000008311171561034657600080fd5b91908080601f016020809104026020016040519081016040528093929190818152602001838380828437600081840152601f19601f820116905080830192505050505050509192919290803590602001906401000000008111156103a957600080fd5b8201836020820111156103bb57600080fd5b803590602001918460018302840111640100000000831117156103dd57600080fd5b91908080601f016020809104026020016040519081016040528093929190818152602001838380828437600081840152601f19601f8201169050808301925050505050505091929192908035906020019064010000000081111561044057600080fd5b82018360208201111561045257600080fd5b8035906020019184600183028401116401000000008311171561047457600080fd5b91908080601f016020809104026020016040519081016040528093929190818152602001838380828437600081840152601f19601f820116905080830192505050505050509192919290505050610bb4565b6040518082815260200191505060405180910390f35b3480156104e857600080fd5b506104f1610dfa565b6040518082815260200191505060405180910390f35b34801561051357600080fd5b5061054a6004803603604081101561052a57600080fd5b810190808035906020019092919080359060200190929190505050610e00565b005b34801561055857600080fd5b506105856004803603602081101561056f57600080fd5b8101908080359060200190929190505050610eb8565b6040518087815260200186815260200185151515158152602001806020018060200180602001848103845287818151815260200191508051906020019080838360005b838110156105e35780820151818401526020810190506105c8565b50505050905090810190601f1680156106105780820380516001836020036101000a031916815260200191505b50848103835286818151815260200191508051906020019080838360005b8381101561064957808201518184015260208101905061062e565b50505050905090810190601f1680156106765780820380516001836020036101000a031916815260200191505b50848103825285818151815260200191508051906020019080838360005b838110156106af578082015181840152602081019050610694565b50505050905090810190601f1680156106dc5780820380516001836020036101000a031916815260200191505b50995050505050505050505060405180910390f35b7f17d3c3f8c4f0fa8d1c6e1bb5edde9fda0537a5f56cafed38fea7b389ea91168784600360003373ffffffffffffffffffffffffffffffffffffffff1673ffffffffffffffffffffffffffffffffffffffff16815260200190815260200160002054858585604051808681526020018581526020018481526020018381526020018281526020019550505050505060405180910390a150505050565b6002602052816000526040600020818154811015156107a857fe5b90600052602060002001600091509150505481565b60606002600083815260200190815260200160002080548060200260200160405190810160405280929190818152602001828054801561081c57602002820191906000526020600020905b815481526020019060010190808311610808575b50505050509050809050919050565b60005481565b600060026000600360003373ffffffffffffffffffffffffffffffffffffffff1673ffffffffffffffffffffffffffffffffffffffff1681526020019081526020016000205481526020019081526020016000209050600060048381548110151561089857fe5b90600052602060002090600602019050826001541115156108b857600080fd5b600360003373ffffffffffffffffffffffffffffffffffffffff1673ffffffffffffffffffffffffffffffffffffffff16815260200190815260200160002054816000015414151561090957600080fd5b60008160020160006101000a81548160ff02191690831515021790555081600183805490500381548110151561093b57fe5b906000526020600020015482826001015481548110151561095857fe5b90600052602060002001819055506000600483836001015481548110151561097c57fe5b906000526020600020015481548110151561099357fe5b90600052602060002090600602019050816001015481600101819055508280548015156109bc57fe5b600190038181906000526020600020016000905590557fa7510b9f06bca625a2290e8871362d0ccc23a2b155fc82b80c66cf8c285c7323600360003373ffffffffffffffffffffffffffffffffffffffff1673ffffffffffffffffffffffffffffffffffffffff1681526020019081526020016000205485604051808381526020018281526020019250505060405180910390a150505050565b6000600482815481101515610a6757fe5b90600052602060002090600602016000015490507fcfeec790cb492f73558ea2f8bbac696dcb49ec548daa4ee42f15fe49088159768183600360003373ffffffffffffffffffffffffffffffffffffffff1673ffffffffffffffffffffffffffffffffffffffff1681526020019081526020016000205460405180848152602001838152602001828152602001935050505060405180910390a15050565b6000600482815481101515610b1657fe5b90600052602060002090600602016000015490507fcfeec790cb492f73558ea2f8bbac696dcb49ec548daa4ee42f15fe49088159768183600360003373ffffffffffffffffffffffffffffffffffffffff1673ffffffffffffffffffffffffffffffffffffffff1681526020019081526020016000205460405180848152602001838152602001828152602001935050505060405180910390a15050565b60008060026000600360003373ffffffffffffffffffffffffffffffffffffffff1673ffffffffffffffffffffffffffffffffffffffff1681526020019081526020016000205481526020019081526020016000209050600081805490501415610c7057600054600360003373ffffffffffffffffffffffffffffffffffffffff1673ffffffffffffffffffffffffffffffffffffffff1681526020019081526020016000208190555060008081548092919060010191905055505b610c786110d8565b60c060405190810160405280600360003373ffffffffffffffffffffffffffffffffffffffff1673ffffffffffffffffffffffffffffffffffffffff16815260200190815260200160002054815260200160008152602001600115158152602001878152602001868152602001858152509050600160048290806001815401808255809150509060018203906000526020600020906006020160009091929091909150600082015181600001556020820151816001015560408201518160020160006101000a81548160ff0219169083151502179055506060820151816003019080519060200190610d6b929190611111565b506080820151816004019080519060200190610d88929190611111565b5060a0820151816005019080519060200190610da5929190611111565b5050500392506000600183859080600181540180825580915050906001820390600052602060002001600090919290919091505503905080826020018181525050836001819055508393505050509392505050565b60015481565b6000600483815481101515610e1157fe5b90600052602060002090600602016000015490507fcc99f51473cc3bf43367db4f64d4efcdfd1acd4c70b4155cb7ffade4f2f6d3628184600360003373ffffffffffffffffffffffffffffffffffffffff1673ffffffffffffffffffffffffffffffffffffffff16815260200190815260200160002054856040518085815260200184815260200183815260200182815260200194505050505060405180910390a1505050565b600481815481101515610ec757fe5b90600052602060002090600602016000915090508060000154908060010154908060020160009054906101000a900460ff1690806003018054600181600116156101000203166002900480601f016020809104026020016040519081016040528092919081815260200182805460018160011615610100020316600290048015610f925780601f10610f6757610100808354040283529160200191610f92565b820191906000526020600020905b815481529060010190602001808311610f7557829003601f168201915b505050505090806004018054600181600116156101000203166002900480601f0160208091040260200160405190810160405280929190818152602001828054600181600116156101000203166002900480156110305780601f1061100557610100808354040283529160200191611030565b820191906000526020600020905b81548152906001019060200180831161101357829003601f168201915b505050505090806005018054600181600116156101000203166002900480601f0160208091040260200160405190810160405280929190818152602001828054600181600116156101000203166002900480156110ce5780601f106110a3576101008083540402835291602001916110ce565b820191906000526020600020905b8154815290600101906020018083116110b157829003601f168201915b5050505050905086565b60c06040519081016040528060008152602001600081526020016000151581526020016060815260200160608152602001606081525090565b828054600181600116156101000203166002900490600052602060002090601f016020900481019282601f1061115257805160ff1916838001178555611180565b82800160010185558215611180579182015b8281111561117f578251825591602001919060010190611164565b5b50905061118d9190611191565b5090565b6111b391905b808211156111af576000816000905550600101611197565b5090565b9056fea165627a7a723058206fd27a1fcb471864a3643c4990a97b1553175c2db2289d0b2898173be623eb0b0029",
  "source": "pragma solidity >=0.4.0 <0.7.0;\n\n\n\ncontract givo {\n  struct Good {\n    uint node;\n    uint index;\n    bool available;\n    string name;\n    string ipfs_image;\n    string ipfs_details;\n  }\n\n  uint constant good_count = 5;\n  uint public node_cntr = 0;\n  uint public max_all_good =0;\n  mapping (uint => uint[]) public offers;\n  mapping (address => uint) address_to_id;\n  Good[] public all_goods;\n\n  event intrested(uint to, uint good_id, uint from);\n  event not_intrested(uint to, uint good_id, uint from);\n  event refer(uint to, uint good_id, uint from, uint refer_id);\n  event deleted(uint owner, uint good_id);\n  event chained(uint to, uint get_owner, uint get_good_id, uint give_owner, uint give_good_id);\n\n  function create_offer(string memory name, string memory ipfs_image, string memory ipfs_details) public returns (uint good_id) {\n    uint[] storage my_offers = offers[address_to_id[msg.sender]];\n    if(my_offers.length==0){\n        address_to_id[msg.sender] = node_cntr;\n        node_cntr++;\n    }\n    Good memory new_good = Good(address_to_id[msg.sender], 0, true, name, ipfs_image, ipfs_details);\n    good_id = all_goods.push(new_good)-1;\n    uint index = my_offers.push(good_id) -1;\n    new_good.index = index;\n    max_all_good = good_id;\n    return good_id;\n  }\n\n  function delete_offer(uint good_id) public{\n    uint[] storage my_offers = offers[address_to_id[msg.sender]];\n    Good storage my_good = all_goods[good_id];\n    require(max_all_good>good_id);\n    require(my_good.node==address_to_id[msg.sender]);\n    my_good.available =false;\n    my_offers[my_good.index] = my_offers[my_offers.length-1];\n    Good storage last_good = all_goods[my_offers[my_good.index]];\n    last_good.index = my_good.index;\n    my_offers.pop();\n    emit deleted(address_to_id[msg.sender], good_id);\n  }\n\n  function get_offers(uint node_id) public view returns (uint[] memory my_offers){\n      my_offers = offers[node_id];\n      return my_offers;\n  }\n\n  function add_intrest(uint good_id) public {\n      uint node_id = all_goods[good_id].node;\n      emit intrested(node_id, good_id, address_to_id[msg.sender]);\n  }\n\n  function delete_intrest(uint good_id) public {\n      uint node_id = all_goods[good_id].node;\n      emit intrested(node_id, good_id, address_to_id[msg.sender]);\n  }\n\n  function refer_intrest(uint good_id, uint refer_id) public {\n      uint node_id = all_goods[good_id].node;\n      emit refer(node_id, good_id, address_to_id[msg.sender], refer_id);\n  }\n\n  function cycle_formed(uint to, uint get_good_id, uint give_owner, uint give_good_id) public{\n      emit chained(to, address_to_id[msg.sender], get_good_id, give_owner, give_good_id);\n  }\n\n}\n",
  "sourcePath": "/Users/sarath.pillai/projects/socialtec/blockchain/v0.1/contracts/givo.sol",
  "compiler": {
    "name": "solc",
    "version": "0.5.0+commit.1d4f565a.Emscripten.clang"
  },
  "schemaVersion": "3.0.6",
  "updatedAt": "2019-04-13T19:12:43.855Z",
  "devdoc": {
    "methods": {}
  },
  "userdoc": {
    "methods": {}
  }
}