{
  "contractName": "givo",
  "abi": [
    {
      "constant": true,
      "inputs": [
        {
          "name": "",
          "type": "uint256"
        },
        {
          "name": "",
          "type": "uint256"
        }
      ],
      "name": "offers",
      "outputs": [
        {
          "name": "",
          "type": "uint256"
        }
      ],
      "payable": false,
      "stateMutability": "view",
      "type": "function",
      "signature": "0x4d03a9a5"
    },
    {
      "constant": true,
      "inputs": [],
      "name": "node_cntr",
      "outputs": [
        {
          "name": "",
          "type": "uint256"
        }
      ],
      "payable": false,
      "stateMutability": "view",
      "type": "function",
      "signature": "0x86c12362"
    },
    {
      "constant": true,
      "inputs": [],
      "name": "max_all_good",
      "outputs": [
        {
          "name": "",
          "type": "uint256"
        }
      ],
      "payable": false,
      "stateMutability": "view",
      "type": "function",
      "signature": "0xdee7afcf"
    },
    {
      "constant": true,
      "inputs": [
        {
          "name": "",
          "type": "uint256"
        }
      ],
      "name": "all_goods",
      "outputs": [
        {
          "name": "node",
          "type": "uint256"
        },
        {
          "name": "index",
          "type": "uint256"
        },
        {
          "name": "available",
          "type": "bool"
        },
        {
          "name": "name",
          "type": "string"
        },
        {
          "name": "ipfs_image",
          "type": "string"
        },
        {
          "name": "ipfs_details",
          "type": "string"
        }
      ],
      "payable": false,
      "stateMutability": "view",
      "type": "function",
      "signature": "0xf9833cc6"
    },
    {
      "anonymous": false,
      "inputs": [
        {
          "indexed": false,
          "name": "to",
          "type": "uint256"
        },
        {
          "indexed": false,
          "name": "good_id",
          "type": "uint256"
        },
        {
          "indexed": false,
          "name": "from",
          "type": "uint256"
        }
      ],
      "name": "intrested",
      "type": "event",
      "signature": "0xcfeec790cb492f73558ea2f8bbac696dcb49ec548daa4ee42f15fe4908815976"
    },
    {
      "anonymous": false,
      "inputs": [
        {
          "indexed": false,
          "name": "to",
          "type": "uint256"
        },
        {
          "indexed": false,
          "name": "good_id",
          "type": "uint256"
        },
        {
          "indexed": false,
          "name": "from",
          "type": "uint256"
        }
      ],
      "name": "not_intrested",
      "type": "event",
      "signature": "0x9aaa23475fee2c5febd67beaa2b49f4104a85d040109fed3569b1cd73c45b84a"
    },
    {
      "anonymous": false,
      "inputs": [
        {
          "indexed": false,
          "name": "to",
          "type": "uint256"
        },
        {
          "indexed": false,
          "name": "good_id",
          "type": "uint256"
        },
        {
          "indexed": false,
          "name": "from",
          "type": "uint256"
        },
        {
          "indexed": false,
          "name": "refer_id",
          "type": "uint256"
        }
      ],
      "name": "refer",
      "type": "event",
      "signature": "0xcc99f51473cc3bf43367db4f64d4efcdfd1acd4c70b4155cb7ffade4f2f6d362"
    },
    {
      "anonymous": false,
      "inputs": [
        {
          "indexed": false,
          "name": "owner",
          "type": "uint256"
        },
        {
          "indexed": false,
          "name": "good_id",
          "type": "uint256"
        }
      ],
      "name": "deleted",
      "type": "event",
      "signature": "0xa7510b9f06bca625a2290e8871362d0ccc23a2b155fc82b80c66cf8c285c7323"
    },
    {
      "anonymous": false,
      "inputs": [
        {
          "indexed": false,
          "name": "to",
          "type": "uint256"
        },
        {
          "indexed": false,
          "name": "get_owner",
          "type": "uint256"
        },
        {
          "indexed": false,
          "name": "get_good_id",
          "type": "uint256"
        },
        {
          "indexed": false,
          "name": "give_owner",
          "type": "uint256"
        },
        {
          "indexed": false,
          "name": "give_good_id",
          "type": "uint256"
        }
      ],
      "name": "chained",
      "type": "event",
      "signature": "0x17d3c3f8c4f0fa8d1c6e1bb5edde9fda0537a5f56cafed38fea7b389ea911687"
    },
    {
      "constant": false,
      "inputs": [
        {
          "name": "name",
          "type": "string"
        },
        {
          "name": "ipfs_image",
          "type": "string"
        },
        {
          "name": "ipfs_details",
          "type": "string"
        }
      ],
      "name": "create_offer",
      "outputs": [
        {
          "name": "good_id",
          "type": "uint256"
        }
      ],
      "payable": false,
      "stateMutability": "nonpayable",
      "type": "function",
      "signature": "0xc175cdd3"
    },
    {
      "constant": false,
      "inputs": [
        {
          "name": "good_id",
          "type": "uint256"
        }
      ],
      "name": "delete_offer",
      "outputs": [],
      "payable": false,
      "stateMutability": "nonpayable",
      "type": "function",
      "signature": "0x881d9637"
    },
    {
      "constant": true,
      "inputs": [
        {
          "name": "node_id",
          "type": "uint256"
        }
      ],
      "name": "get_offers",
      "outputs": [
        {
          "name": "my_offers",
          "type": "uint256[]"
        }
      ],
      "payable": false,
      "stateMutability": "view",
      "type": "function",
      "signature": "0x4db5474c"
    },
    {
      "constant": false,
      "inputs": [
        {
          "name": "good_id",
          "type": "uint256"
        }
      ],
      "name": "add_intrest",
      "outputs": [],
      "payable": false,
      "stateMutability": "nonpayable",
      "type": "function",
      "signature": "0xa2eeced9"
    },
    {
      "constant": false,
      "inputs": [
        {
          "name": "good_id",
          "type": "uint256"
        }
      ],
      "name": "delete_intrest",
      "outputs": [],
      "payable": false,
      "stateMutability": "nonpayable",
      "type": "function",
      "signature": "0xb0553886"
    },
    {
      "constant": false,
      "inputs": [
        {
          "name": "good_id",
          "type": "uint256"
        },
        {
          "name": "refer_id",
          "type": "uint256"
        }
      ],
      "name": "refer_intrest",
      "outputs": [],
      "payable": false,
      "stateMutability": "nonpayable",
      "type": "function",
      "signature": "0xeeeb4379"
    },
    {
      "constant": false,
      "inputs": [
        {
          "name": "to",
          "type": "uint256"
        },
        {
          "name": "get_good_id",
          "type": "uint256"
        },
        {
          "name": "give_owner",
          "type": "uint256"
        },
        {
          "name": "give_good_id",
          "type": "uint256"
        }
      ],
      "name": "cycle_formed",
      "outputs": [],
      "payable": false,
      "stateMutability": "nonpayable",
      "type": "function",
      "signature": "0x43cef25e"
    },
    {
      "constant": false,
      "inputs": [
        {
          "name": "to",
          "type": "uint256"
        },
        {
          "name": "good",
          "type": "uint256"
        },
        {
          "name": "owner",
          "type": "uint256"
        },
        {
          "name": "con_good",
          "type": "uint256"
        },
        {
          "name": "getter",
          "type": "uint256"
        }
      ],
      "name": "cycle_propagate",
      "outputs": [],
      "payable": false,
      "stateMutability": "nonpayable",
      "type": "function",
      "signature": "0xbfb9c453"
    }
  ],
  "bytecode": "0x608060405260008055600060015534801561001957600080fd5b506112ae806100296000396000f3fe6080604052600436106100ba576000357c0100000000000000000000000000000000000000000000000000000000900463ffffffff16806343cef25e146100bf5780634d03a9a5146101185780634db5474c1461017157806386c1236214610201578063881d96371461022c578063a2eeced914610267578063b0553886146102a2578063bfb9c453146102dd578063c175cdd314610340578063dee7afcf1461054a578063eeeb437914610575578063f9833cc6146105ba575b600080fd5b3480156100cb57600080fd5b50610116600480360360808110156100e257600080fd5b810190808035906020019092919080359060200190929190803590602001909291908035906020019092919050505061075f565b005b34801561012457600080fd5b5061015b6004803603604081101561013b57600080fd5b8101908080359060200190929190803590602001909291905050506107fb565b6040518082815260200191505060405180910390f35b34801561017d57600080fd5b506101aa6004803603602081101561019457600080fd5b810190808035906020019092919050505061082b565b6040518080602001828103825283818151815260200191508051906020019060200280838360005b838110156101ed5780820151818401526020810190506101d2565b505050509050019250505060405180910390f35b34801561020d57600080fd5b50610216610899565b6040518082815260200191505060405180910390f35b34801561023857600080fd5b506102656004803603602081101561024f57600080fd5b810190808035906020019092919050505061089f565b005b34801561027357600080fd5b506102a06004803603602081101561028a57600080fd5b8101908080359060200190929190505050610ac4565b005b3480156102ae57600080fd5b506102db600480360360208110156102c557600080fd5b8101908080359060200190929190505050610b73565b005b3480156102e957600080fd5b5061033e600480360360a081101561030057600080fd5b810190808035906020019092919080359060200190929190803590602001909291908035906020019092919080359060200190929190505050610c22565b005b34801561034c57600080fd5b506105346004803603606081101561036357600080fd5b810190808035906020019064010000000081111561038057600080fd5b82018360208201111561039257600080fd5b803590602001918460018302840111640100000000831117156103b457600080fd5b91908080601f016020809104026020016040519081016040528093929190818152602001838380828437600081840152601f19601f8201169050808301925050505050505091929192908035906020019064010000000081111561041757600080fd5b82018360208201111561042957600080fd5b8035906020019184600183028401116401000000008311171561044b57600080fd5b91908080601f016020809104026020016040519081016040528093929190818152602001838380828437600081840152601f19601f820116905080830192505050505050509192919290803590602001906401000000008111156104ae57600080fd5b8201836020820111156104c057600080fd5b803590602001918460018302840111640100000000831117156104e257600080fd5b91908080601f016020809104026020016040519081016040528093929190818152602001838380828437600081840152601f19601f820116905080830192505050505050509192919290505050610c80565b6040518082815260200191505060405180910390f35b34801561055657600080fd5b5061055f610ec6565b6040518082815260200191505060405180910390f35b34801561058157600080fd5b506105b86004803603604081101561059857600080fd5b810190808035906020019092919080359060200190929190505050610ecc565b005b3480156105c657600080fd5b506105f3600480360360208110156105dd57600080fd5b8101908080359060200190929190505050610f84565b6040518087815260200186815260200185151515158152602001806020018060200180602001848103845287818151815260200191508051906020019080838360005b83811015610651578082015181840152602081019050610636565b50505050905090810190601f16801561067e5780820380516001836020036101000a031916815260200191505b50848103835286818151815260200191508051906020019080838360005b838110156106b757808201518184015260208101905061069c565b50505050905090810190601f1680156106e45780820380516001836020036101000a031916815260200191505b50848103825285818151815260200191508051906020019080838360005b8381101561071d578082015181840152602081019050610702565b50505050905090810190601f16801561074a5780820380516001836020036101000a031916815260200191505b50995050505050505050505060405180910390f35b7f17d3c3f8c4f0fa8d1c6e1bb5edde9fda0537a5f56cafed38fea7b389ea91168784600360003373ffffffffffffffffffffffffffffffffffffffff1673ffffffffffffffffffffffffffffffffffffffff16815260200190815260200160002054858585604051808681526020018581526020018481526020018381526020018281526020019550505050505060405180910390a150505050565b60026020528160005260406000208181548110151561081657fe5b90600052602060002001600091509150505481565b60606002600083815260200190815260200160002080548060200260200160405190810160405280929190818152602001828054801561088a57602002820191906000526020600020905b815481526020019060010190808311610876575b50505050509050809050919050565b60005481565b600060026000600360003373ffffffffffffffffffffffffffffffffffffffff1673ffffffffffffffffffffffffffffffffffffffff1681526020019081526020016000205481526020019081526020016000209050600060048381548110151561090657fe5b906000526020600020906006020190508260015411151561092657600080fd5b600360003373ffffffffffffffffffffffffffffffffffffffff1673ffffffffffffffffffffffffffffffffffffffff16815260200190815260200160002054816000015414151561097757600080fd5b60008160020160006101000a81548160ff0219169083151502179055508160018380549050038154811015156109a957fe5b90600052602060002001548282600101548154811015156109c657fe5b9060005260206000200181905550600060048383600101548154811015156109ea57fe5b9060005260206000200154815481101515610a0157fe5b9060005260206000209060060201905081600101548160010181905550828054801515610a2a57fe5b600190038181906000526020600020016000905590557fa7510b9f06bca625a2290e8871362d0ccc23a2b155fc82b80c66cf8c285c7323600360003373ffffffffffffffffffffffffffffffffffffffff1673ffffffffffffffffffffffffffffffffffffffff1681526020019081526020016000205485604051808381526020018281526020019250505060405180910390a150505050565b6000600482815481101515610ad557fe5b90600052602060002090600602016000015490507fcfeec790cb492f73558ea2f8bbac696dcb49ec548daa4ee42f15fe49088159768183600360003373ffffffffffffffffffffffffffffffffffffffff1673ffffffffffffffffffffffffffffffffffffffff1681526020019081526020016000205460405180848152602001838152602001828152602001935050505060405180910390a15050565b6000600482815481101515610b8457fe5b90600052602060002090600602016000015490507fcfeec790cb492f73558ea2f8bbac696dcb49ec548daa4ee42f15fe49088159768183600360003373ffffffffffffffffffffffffffffffffffffffff1673ffffffffffffffffffffffffffffffffffffffff1681526020019081526020016000205460405180848152602001838152602001828152602001935050505060405180910390a15050565b7f17d3c3f8c4f0fa8d1c6e1bb5edde9fda0537a5f56cafed38fea7b389ea9116878582868686604051808681526020018581526020018481526020018381526020018281526020019550505050505060405180910390a15050505050565b60008060026000600360003373ffffffffffffffffffffffffffffffffffffffff1673ffffffffffffffffffffffffffffffffffffffff1681526020019081526020016000205481526020019081526020016000209050600081805490501415610d3c57600054600360003373ffffffffffffffffffffffffffffffffffffffff1673ffffffffffffffffffffffffffffffffffffffff1681526020019081526020016000208190555060008081548092919060010191905055505b610d446111a4565b60c060405190810160405280600360003373ffffffffffffffffffffffffffffffffffffffff1673ffffffffffffffffffffffffffffffffffffffff16815260200190815260200160002054815260200160008152602001600115158152602001878152602001868152602001858152509050600160048290806001815401808255809150509060018203906000526020600020906006020160009091929091909150600082015181600001556020820151816001015560408201518160020160006101000a81548160ff0219169083151502179055506060820151816003019080519060200190610e379291906111dd565b506080820151816004019080519060200190610e549291906111dd565b5060a0820151816005019080519060200190610e719291906111dd565b5050500392506000600183859080600181540180825580915050906001820390600052602060002001600090919290919091505503905080826020018181525050836001819055508393505050509392505050565b60015481565b6000600483815481101515610edd57fe5b90600052602060002090600602016000015490507fcc99f51473cc3bf43367db4f64d4efcdfd1acd4c70b4155cb7ffade4f2f6d3628184600360003373ffffffffffffffffffffffffffffffffffffffff1673ffffffffffffffffffffffffffffffffffffffff16815260200190815260200160002054856040518085815260200184815260200183815260200182815260200194505050505060405180910390a1505050565b600481815481101515610f9357fe5b90600052602060002090600602016000915090508060000154908060010154908060020160009054906101000a900460ff1690806003018054600181600116156101000203166002900480601f01602080910402602001604051908101604052809291908181526020018280546001816001161561010002031660029004801561105e5780601f106110335761010080835404028352916020019161105e565b820191906000526020600020905b81548152906001019060200180831161104157829003601f168201915b505050505090806004018054600181600116156101000203166002900480601f0160208091040260200160405190810160405280929190818152602001828054600181600116156101000203166002900480156110fc5780601f106110d1576101008083540402835291602001916110fc565b820191906000526020600020905b8154815290600101906020018083116110df57829003601f168201915b505050505090806005018054600181600116156101000203166002900480601f01602080910402602001604051908101604052809291908181526020018280546001816001161561010002031660029004801561119a5780601f1061116f5761010080835404028352916020019161119a565b820191906000526020600020905b81548152906001019060200180831161117d57829003601f168201915b5050505050905086565b60c06040519081016040528060008152602001600081526020016000151581526020016060815260200160608152602001606081525090565b828054600181600116156101000203166002900490600052602060002090601f016020900481019282601f1061121e57805160ff191683800117855561124c565b8280016001018555821561124c579182015b8281111561124b578251825591602001919060010190611230565b5b509050611259919061125d565b5090565b61127f91905b8082111561127b576000816000905550600101611263565b5090565b9056fea165627a7a7230582006d0e4c7f9d0e0562efad4d0f5f2a36af914250814626d31e8343ef33473c23c0029",
  "source": "pragma solidity >=0.4.0 <0.7.0;\n\n//8678dc180d0a126d14e861a1afe9750071f0adfa495ac3f06355680595a65283\n\ncontract givo {\n\n  struct Good {\n    uint node;\n    uint index;\n    bool available;\n    string name;\n    string ipfs_image;\n    string ipfs_details;\n  }\n\n  uint constant good_count = 5;\n  uint public node_cntr = 0;\n  uint public max_all_good =0;\n  mapping (uint => uint[]) public offers;\n  mapping (address => uint) address_to_id;\n  Good[] public all_goods;\n\n  event intrested(uint to, uint good_id, uint from);\n  event not_intrested(uint to, uint good_id, uint from);\n  event refer(uint to, uint good_id, uint from, uint refer_id);\n  event deleted(uint owner, uint good_id);\n  event chained(uint to, uint get_owner, uint get_good_id, uint give_owner, uint give_good_id);\n\n  function create_offer(string memory name, string memory ipfs_image, string memory ipfs_details) public returns (uint good_id) {\n    uint[] storage my_offers = offers[address_to_id[msg.sender]];\n    if(my_offers.length==0){\n        address_to_id[msg.sender] = node_cntr;\n        node_cntr++;\n    }\n    Good memory new_good = Good(address_to_id[msg.sender], 0, true, name, ipfs_image, ipfs_details);\n    good_id = all_goods.push(new_good)-1;\n    uint index = my_offers.push(good_id) -1;\n    new_good.index = index;\n    max_all_good = good_id;\n    return good_id;\n  }\n\n  function delete_offer(uint good_id) public{\n    uint[] storage my_offers = offers[address_to_id[msg.sender]];\n    Good storage my_good = all_goods[good_id];\n    require(max_all_good>good_id);\n    require(my_good.node==address_to_id[msg.sender]);\n    my_good.available =false;\n    my_offers[my_good.index] = my_offers[my_offers.length-1];\n    Good storage last_good = all_goods[my_offers[my_good.index]];\n    last_good.index = my_good.index;\n    my_offers.pop();\n    emit deleted(address_to_id[msg.sender], good_id);\n  }\n\n  function get_offers(uint node_id) public view returns (uint[] memory my_offers){\n      my_offers = offers[node_id];\n      return my_offers;\n  }\n\n  function add_intrest(uint good_id) public {\n      uint node_id = all_goods[good_id].node;\n      emit intrested(node_id, good_id, address_to_id[msg.sender]);\n  }\n\n  function delete_intrest(uint good_id) public {\n      uint node_id = all_goods[good_id].node;\n      emit intrested(node_id, good_id, address_to_id[msg.sender]);\n  }\n\n  function refer_intrest(uint good_id, uint refer_id) public {\n      uint node_id = all_goods[good_id].node;\n      emit refer(node_id, good_id, address_to_id[msg.sender], refer_id);\n  }\n\n  function cycle_formed(uint to, uint get_good_id, uint give_owner, uint give_good_id) public{\n      emit chained(to, address_to_id[msg.sender], get_good_id, give_owner, give_good_id);\n  }\n\n  //I give (good) (to) you if (owner) gives (con_good) to (getter).\n  function cycle_propagate(uint to, uint good, uint owner, uint con_good, uint getter) public{\n      emit chained(to, getter, good, owner, con_good);\n  }\n\n\n\n}\n",
  "sourcePath": "/home/arash/Desktop/Hackathon/odessey/Socialtec/blockchain/v0.1/contracts/givo.sol",
  "compiler": {
    "name": "solc",
    "version": "0.5.0+commit.1d4f565a.Emscripten.clang"
  },
  "schemaVersion": "3.0.6",
  "updatedAt": "2019-04-13T19:26:21.129Z",
  "devdoc": {
    "methods": {}
  },
  "userdoc": {
    "methods": {}
  }
}