{
  "contractName": "givo",
  "abi": [
    {
      "constant": true,
      "inputs": [
        {
          "name": "",
          "type": "uint256"
        },
        {
          "name": "",
          "type": "uint256"
        }
      ],
      "name": "offers",
      "outputs": [
        {
          "name": "",
          "type": "uint256"
        }
      ],
      "payable": false,
      "stateMutability": "view",
      "type": "function"
    },
    {
      "constant": true,
      "inputs": [
        {
          "name": "",
          "type": "address"
        }
      ],
      "name": "address_to_id",
      "outputs": [
        {
          "name": "",
          "type": "uint256"
        }
      ],
      "payable": false,
      "stateMutability": "view",
      "type": "function"
    },
    {
      "constant": true,
      "inputs": [],
      "name": "node_cntr",
      "outputs": [
        {
          "name": "",
          "type": "uint256"
        }
      ],
      "payable": false,
      "stateMutability": "view",
      "type": "function"
    },
    {
      "constant": true,
      "inputs": [],
      "name": "max_all_good",
      "outputs": [
        {
          "name": "",
          "type": "uint256"
        }
      ],
      "payable": false,
      "stateMutability": "view",
      "type": "function"
    },
    {
      "constant": true,
      "inputs": [
        {
          "name": "",
          "type": "uint256"
        }
      ],
      "name": "all_goods",
      "outputs": [
        {
          "name": "node",
          "type": "uint256"
        },
        {
          "name": "index",
          "type": "uint256"
        },
        {
          "name": "available",
          "type": "bool"
        },
        {
          "name": "name",
          "type": "string"
        },
        {
          "name": "ipfs_image",
          "type": "string"
        },
        {
          "name": "ipfs_details",
          "type": "string"
        }
      ],
      "payable": false,
      "stateMutability": "view",
      "type": "function"
    },
    {
      "anonymous": false,
      "inputs": [
        {
          "indexed": true,
          "name": "to",
          "type": "uint256"
        },
        {
          "indexed": false,
          "name": "good_id",
          "type": "uint256"
        },
        {
          "indexed": false,
          "name": "from",
          "type": "uint256"
        }
      ],
      "name": "not_intrested",
      "type": "event"
    },
    {
      "anonymous": false,
      "inputs": [
        {
          "indexed": true,
          "name": "to",
          "type": "uint256"
        },
        {
          "indexed": false,
          "name": "referer_interest",
          "type": "uint256"
        },
        {
          "indexed": false,
          "name": "referer",
          "type": "uint256"
        },
        {
          "indexed": false,
          "name": "reference_id",
          "type": "uint256"
        }
      ],
      "name": "refer",
      "type": "event"
    },
    {
      "anonymous": false,
      "inputs": [
        {
          "indexed": false,
          "name": "owner",
          "type": "uint256"
        },
        {
          "indexed": true,
          "name": "good_id",
          "type": "uint256"
        }
      ],
      "name": "deleted",
      "type": "event"
    },
    {
      "anonymous": false,
      "inputs": [
        {
          "indexed": false,
          "name": "if_owner",
          "type": "uint256"
        },
        {
          "indexed": false,
          "name": "if_good",
          "type": "uint256"
        },
        {
          "indexed": false,
          "name": "if_receiver",
          "type": "uint256"
        },
        {
          "indexed": false,
          "name": "then_good",
          "type": "uint256"
        },
        {
          "indexed": true,
          "name": "then_receiver",
          "type": "uint256"
        }
      ],
      "name": "chained",
      "type": "event"
    },
    {
      "constant": false,
      "inputs": [
        {
          "name": "name",
          "type": "string"
        },
        {
          "name": "ipfs_image",
          "type": "string"
        },
        {
          "name": "ipfs_details",
          "type": "string"
        }
      ],
      "name": "create_offer",
      "outputs": [
        {
          "name": "good_id",
          "type": "uint256"
        }
      ],
      "payable": false,
      "stateMutability": "nonpayable",
      "type": "function"
    },
    {
      "constant": false,
      "inputs": [],
      "name": "assign_id",
      "outputs": [],
      "payable": false,
      "stateMutability": "nonpayable",
      "type": "function"
    },
    {
      "constant": false,
      "inputs": [
        {
          "name": "good_id",
          "type": "uint256"
        }
      ],
      "name": "delete_offer",
      "outputs": [],
      "payable": false,
      "stateMutability": "nonpayable",
      "type": "function"
    },
    {
      "constant": true,
      "inputs": [
        {
          "name": "node_id",
          "type": "uint256"
        }
      ],
      "name": "get_offers",
      "outputs": [
        {
          "name": "my_offers",
          "type": "uint256[]"
        }
      ],
      "payable": false,
      "stateMutability": "view",
      "type": "function"
    },
    {
      "constant": false,
      "inputs": [
        {
          "name": "interested_good_id",
          "type": "uint256"
        }
      ],
      "name": "add_interest",
      "outputs": [],
      "payable": false,
      "stateMutability": "nonpayable",
      "type": "function"
    },
    {
      "constant": false,
      "inputs": [
        {
          "name": "good_id",
          "type": "uint256"
        }
      ],
      "name": "delete_interest",
      "outputs": [],
      "payable": false,
      "stateMutability": "nonpayable",
      "type": "function"
    },
    {
      "constant": false,
      "inputs": [
        {
          "name": "intrested_good_id",
          "type": "uint256"
        },
        {
          "name": "reference_id",
          "type": "uint256"
        }
      ],
      "name": "refer_interest",
      "outputs": [],
      "payable": false,
      "stateMutability": "nonpayable",
      "type": "function"
    },
    {
      "constant": false,
      "inputs": [
        {
          "name": "if_owner",
          "type": "uint256"
        },
        {
          "name": "if_good",
          "type": "uint256"
        },
        {
          "name": "then_good",
          "type": "uint256"
        },
        {
          "name": "then_receiver",
          "type": "uint256"
        }
      ],
      "name": "cycle_formed",
      "outputs": [],
      "payable": false,
      "stateMutability": "nonpayable",
      "type": "function"
    },
    {
      "constant": false,
      "inputs": [
        {
          "name": "if_owner",
          "type": "uint256"
        },
        {
          "name": "if_good",
          "type": "uint256"
        },
        {
          "name": "if_receiver",
          "type": "uint256"
        },
        {
          "name": "then_good",
          "type": "uint256"
        },
        {
          "name": "then_receiver",
          "type": "uint256"
        }
      ],
      "name": "cycle_propagate",
      "outputs": [],
      "payable": false,
      "stateMutability": "nonpayable",
      "type": "function"
    }
  ],
  "bytecode": "0x60806040526001600055600060015534801561001a57600080fd5b506114598061002a6000396000f3fe6080604052600436106100d0576000357c0100000000000000000000000000000000000000000000000000000000900463ffffffff1680631832453d146100d557806343cef25e146101105780634d03a9a5146101695780634db5474c146101c25780637a52f30e146102525780637dcdbbc1146102b757806386c12362146102f2578063881d96371461031d5780638b72a45d14610358578063bfb9c4531461039d578063c175cdd314610400578063dee7afcf1461060a578063e346b47914610635578063f9833cc61461064c575b600080fd5b3480156100e157600080fd5b5061010e600480360360208110156100f857600080fd5b81019080803590602001909291905050506107f1565b005b34801561011c57600080fd5b506101676004803603608081101561013357600080fd5b81019080803590602001909291908035906020019092919080359060200190929190803590602001909291905050506108e0565b005b34801561017557600080fd5b506101ac6004803603604081101561018c57600080fd5b810190808035906020019092919080359060200190929190505050610975565b6040518082815260200191505060405180910390f35b3480156101ce57600080fd5b506101fb600480360360208110156101e557600080fd5b81019080803590602001909291905050506109a5565b6040518080602001828103825283818151815260200191508051906020019060200280838360005b8381101561023e578082015181840152602081019050610223565b505050509050019250505060405180910390f35b34801561025e57600080fd5b506102a16004803603602081101561027557600080fd5b81019080803573ffffffffffffffffffffffffffffffffffffffff169060200190929190505050610a13565b6040518082815260200191505060405180910390f35b3480156102c357600080fd5b506102f0600480360360208110156102da57600080fd5b8101908080359060200190929190505050610a2b565b005b3480156102fe57600080fd5b50610307610ad3565b6040518082815260200191505060405180910390f35b34801561032957600080fd5b506103566004803603602081101561034057600080fd5b8101908080359060200190929190505050610ad9565b005b34801561036457600080fd5b5061039b6004803603604081101561037b57600080fd5b810190808035906020019092919080359060200190929190505050610cf7565b005b3480156103a957600080fd5b506103fe600480360360a08110156103c057600080fd5b810190808035906020019092919080359060200190929190803590602001909291908035906020019092919080359060200190929190505050610da8565b005b34801561040c57600080fd5b506105f46004803603606081101561042357600080fd5b810190808035906020019064010000000081111561044057600080fd5b82018360208201111561045257600080fd5b8035906020019184600183028401116401000000008311171561047457600080fd5b91908080601f016020809104026020016040519081016040528093929190818152602001838380828437600081840152601f19601f820116905080830192505050505050509192919290803590602001906401000000008111156104d757600080fd5b8201836020820111156104e957600080fd5b8035906020019184600183028401116401000000008311171561050b57600080fd5b91908080601f016020809104026020016040519081016040528093929190818152602001838380828437600081840152601f19601f8201169050808301925050505050505091929192908035906020019064010000000081111561056e57600080fd5b82018360208201111561058057600080fd5b803590602001918460018302840111640100000000831117156105a257600080fd5b91908080601f016020809104026020016040519081016040528093929190818152602001838380828437600081840152601f19601f820116905080830192505050505050509192919290505050610dff565b6040518082815260200191505060405180910390f35b34801561061657600080fd5b5061061f611081565b6040518082815260200191505060405180910390f35b34801561064157600080fd5b5061064a611087565b005b34801561065857600080fd5b506106856004803603602081101561066f57600080fd5b810190808035906020019092919050505061112f565b6040518087815260200186815260200185151515158152602001806020018060200180602001848103845287818151815260200191508051906020019080838360005b838110156106e35780820151818401526020810190506106c8565b50505050905090810190601f1680156107105780820380516001836020036101000a031916815260200191505b50848103835286818151815260200191508051906020019080838360005b8381101561074957808201518184015260208101905061072e565b50505050905090810190601f1680156107765780820380516001836020036101000a031916815260200191505b50848103825285818151815260200191508051906020019080838360005b838110156107af578082015181840152602081019050610794565b50505050905090810190601f1680156107dc5780820380516001836020036101000a031916815260200191505b50995050505050505050505060405180910390f35b600060048281548110151561080257fe5b9060005260206000209060060201600001549050807fcc99f51473cc3bf43367db4f64d4efcdfd1acd4c70b4155cb7ffade4f2f6d36283600360003373ffffffffffffffffffffffffffffffffffffffff1673ffffffffffffffffffffffffffffffffffffffff16815260200190815260200160002054600360003373ffffffffffffffffffffffffffffffffffffffff1673ffffffffffffffffffffffffffffffffffffffff1681526020019081526020016000205460405180848152602001838152602001828152602001935050505060405180910390a25050565b807f17d3c3f8c4f0fa8d1c6e1bb5edde9fda0537a5f56cafed38fea7b389ea9116878585600360003373ffffffffffffffffffffffffffffffffffffffff1673ffffffffffffffffffffffffffffffffffffffff16815260200190815260200160002054866040518085815260200184815260200183815260200182815260200194505050505060405180910390a250505050565b60026020528160005260406000208181548110151561099057fe5b90600052602060002001600091509150505481565b606060026000838152602001908152602001600020805480602002602001604051908101604052809291908181526020018280548015610a0457602002820191906000526020600020905b8154815260200190600101908083116109f0575b50505050509050809050919050565b60036020528060005260406000206000915090505481565b6000600482815481101515610a3c57fe5b9060005260206000209060060201600001549050807f9aaa23475fee2c5febd67beaa2b49f4104a85d040109fed3569b1cd73c45b84a83600360003373ffffffffffffffffffffffffffffffffffffffff1673ffffffffffffffffffffffffffffffffffffffff16815260200190815260200160002054604051808381526020018281526020019250505060405180910390a25050565b60005481565b600060026000600360003373ffffffffffffffffffffffffffffffffffffffff1673ffffffffffffffffffffffffffffffffffffffff16815260200190815260200160002054815260200190815260200160002090506000600483815481101515610b4057fe5b9060005260206000209060060201905082600154111515610b6057600080fd5b600360003373ffffffffffffffffffffffffffffffffffffffff1673ffffffffffffffffffffffffffffffffffffffff168152602001908152602001600020548160000154141515610bb157600080fd5b60008160020160006101000a81548160ff021916908315150217905550816001838054905003815481101515610be357fe5b9060005260206000200154828260010154815481101515610c0057fe5b906000526020600020018190555060006004838360010154815481101515610c2457fe5b9060005260206000200154815481101515610c3b57fe5b9060005260206000209060060201905081600101548160010181905550828054801515610c6457fe5b60019003818190600052602060002001600090559055837fa7510b9f06bca625a2290e8871362d0ccc23a2b155fc82b80c66cf8c285c7323600360003373ffffffffffffffffffffffffffffffffffffffff1673ffffffffffffffffffffffffffffffffffffffff168152602001908152602001600020546040518082815260200191505060405180910390a250505050565b6000600483815481101515610d0857fe5b9060005260206000209060060201600001549050807fcc99f51473cc3bf43367db4f64d4efcdfd1acd4c70b4155cb7ffade4f2f6d36284600360003373ffffffffffffffffffffffffffffffffffffffff1673ffffffffffffffffffffffffffffffffffffffff168152602001908152602001600020548560405180848152602001838152602001828152602001935050505060405180910390a2505050565b807f17d3c3f8c4f0fa8d1c6e1bb5edde9fda0537a5f56cafed38fea7b389ea911687868686866040518085815260200184815260200183815260200182815260200194505050505060405180910390a25050505050565b600080600360003373ffffffffffffffffffffffffffffffffffffffff1673ffffffffffffffffffffffffffffffffffffffff1681526020019081526020016000205490506000811415610ea057600054600360003373ffffffffffffffffffffffffffffffffffffffff1673ffffffffffffffffffffffffffffffffffffffff168152602001908152602001600020819055506001600054016000819055505b600060026000600360003373ffffffffffffffffffffffffffffffffffffffff1673ffffffffffffffffffffffffffffffffffffffff1681526020019081526020016000205481526020019081526020016000209050610efe61134f565b60c060405190810160405280600360003373ffffffffffffffffffffffffffffffffffffffff1673ffffffffffffffffffffffffffffffffffffffff16815260200190815260200160002054815260200160008152602001600115158152602001888152602001878152602001868152509050600160048290806001815401808255809150509060018203906000526020600020906006020160009091929091909150600082015181600001556020820151816001015560408201518160020160006101000a81548160ff0219169083151502179055506060820151816003019080519060200190610ff1929190611388565b50608082015181600401908051906020019061100e929190611388565b5060a082015181600501908051906020019061102b929190611388565b505050039350600060018386908060018154018082558091505090600182039060005260206000200160009091929091909150550390508082602001818152505084600181905550849450505050509392505050565b60015481565b6000600360003373ffffffffffffffffffffffffffffffffffffffff1673ffffffffffffffffffffffffffffffffffffffff168152602001908152602001600020549050600081141561112c57600054600360003373ffffffffffffffffffffffffffffffffffffffff1673ffffffffffffffffffffffffffffffffffffffff1681526020019081526020016000208190555060005490506001600054016000819055505b50565b60048181548110151561113e57fe5b90600052602060002090600602016000915090508060000154908060010154908060020160009054906101000a900460ff1690806003018054600181600116156101000203166002900480601f0160208091040260200160405190810160405280929190818152602001828054600181600116156101000203166002900480156112095780601f106111de57610100808354040283529160200191611209565b820191906000526020600020905b8154815290600101906020018083116111ec57829003601f168201915b505050505090806004018054600181600116156101000203166002900480601f0160208091040260200160405190810160405280929190818152602001828054600181600116156101000203166002900480156112a75780601f1061127c576101008083540402835291602001916112a7565b820191906000526020600020905b81548152906001019060200180831161128a57829003601f168201915b505050505090806005018054600181600116156101000203166002900480601f0160208091040260200160405190810160405280929190818152602001828054600181600116156101000203166002900480156113455780601f1061131a57610100808354040283529160200191611345565b820191906000526020600020905b81548152906001019060200180831161132857829003601f168201915b5050505050905086565b60c06040519081016040528060008152602001600081526020016000151581526020016060815260200160608152602001606081525090565b828054600181600116156101000203166002900490600052602060002090601f016020900481019282601f106113c957805160ff19168380011785556113f7565b828001600101855582156113f7579182015b828111156113f65782518255916020019190600101906113db565b5b5090506114049190611408565b5090565b61142a91905b8082111561142657600081600090555060010161140e565b5090565b9056fea165627a7a723058202106627ee75c5dff3125a66c10c8032dbec7d42095102dfe6cd7c87f29480cae0029",
  "source": "pragma solidity >=0.4.0 <0.7.0;\n\n\n\ncontract givo {\n  struct Good {\n    uint node;\n    uint index;\n    bool available;\n    string name;\n    string ipfs_image;\n    string ipfs_details;\n  }\n\n  uint constant good_count = 5;\n  uint public node_cntr = 1;\n  uint public max_all_good =0;\n  mapping (uint => uint[]) public offers;\n  mapping (address => uint) public address_to_id;\n  Good[] public all_goods;\n\n  event not_intrested(uint indexed to, uint good_id, uint from);\n  event refer(uint indexed to, uint referer_interest, uint referer, uint reference_id);\n  event deleted(uint owner, uint indexed good_id);\n  event chained(uint if_owner, uint if_good, uint if_receiver, uint then_good, uint indexed then_receiver);\n\n  function create_offer(string memory name, string memory ipfs_image, string memory ipfs_details) public returns (uint good_id) {\n    uint id = address_to_id[msg.sender];\n    if (id == 0) {\n        address_to_id[msg.sender] = node_cntr;\n        node_cntr=node_cntr+1;\n    }\n    uint[] storage my_offers = offers[address_to_id[msg.sender]];\n    Good memory new_good = Good(address_to_id[msg.sender], 0, true, name, ipfs_image, ipfs_details);\n    good_id = all_goods.push(new_good)-1;\n    uint index = my_offers.push(good_id) -1;\n    new_good.index = index;\n    max_all_good = good_id;\n    return good_id;\n  }\n\n  function assign_id() external {\n    uint id = address_to_id[msg.sender];\n    if (id == 0) {\n        address_to_id[msg.sender] = node_cntr;\n        id = node_cntr;\n        node_cntr=node_cntr+1;\n    }\n  }\n\n  function delete_offer(uint good_id) public{\n    uint[] storage my_offers = offers[address_to_id[msg.sender]];\n    Good storage my_good = all_goods[good_id];\n    require(max_all_good>good_id);\n    require(my_good.node==address_to_id[msg.sender]);\n    my_good.available =false;\n    my_offers[my_good.index] = my_offers[my_offers.length-1];\n    Good storage last_good = all_goods[my_offers[my_good.index]];\n    last_good.index = my_good.index;\n    my_offers.pop();\n    emit deleted(address_to_id[msg.sender], good_id);\n  }\n\n  function get_offers(uint node_id) public view returns (uint[] memory my_offers){\n      my_offers = offers[node_id];\n      return my_offers;\n  }\n\n  function add_interest(uint interested_good_id) public {\n      uint owner_interested_good = all_goods[interested_good_id].node;\n      emit refer(owner_interested_good, interested_good_id, address_to_id[msg.sender], address_to_id[msg.sender]);\n  }\n\n  function delete_interest(uint good_id) public {\n      uint node_id = all_goods[good_id].node;\n      emit not_intrested(node_id, good_id, address_to_id[msg.sender]);\n  }\n\n  function refer_interest(uint intrested_good_id, uint reference_id) public {\n        uint owner_interested_good = all_goods[intrested_good_id].node;\n        emit refer(owner_interested_good, intrested_good_id, address_to_id[msg.sender], reference_id);\n\n  }\n\n  function cycle_formed(uint if_owner, uint if_good,  uint then_good, uint then_receiver) public{\n      emit chained(if_owner, if_good, address_to_id[msg.sender], then_good,then_receiver);\n  }\n\n  function cycle_propagate(uint if_owner, uint if_good,uint if_receiver,  uint then_good, uint then_receiver) public{\n      emit chained(if_owner, if_good, if_receiver, then_good,then_receiver);\n  }\n\n}\n",
  "sourcePath": "/home/arash/Desktop/socialtec/contracts/givo.sol",
  "compiler": {
    "name": "solc",
    "version": "0.5.0+commit.1d4f565a.Emscripten.clang"
  },
  "schemaVersion": "3.0.6",
  "updatedAt": "2019-04-21T16:09:07.620Z",
  "devdoc": {
    "methods": {}
  },
  "userdoc": {
    "methods": {}
  }
}